{
  "_format": "hh-sol-artifact-1",
  "contractName": "ProofRegistry",
  "sourceName": "contracts/ProofRegistry.sol",
  "abi": [
    {
      "anonymous": false,
      "inputs": [
        {
          "indexed": true,
          "internalType": "bytes32",
          "name": "proofHash",
          "type": "bytes32"
        },
        {
          "indexed": true,
          "internalType": "address",
          "name": "walletAddress",
          "type": "address"
        },
        {
          "indexed": false,
          "internalType": "uint256",
          "name": "timestamp",
          "type": "uint256"
        },
        {
          "indexed": false,
          "internalType": "uint256",
          "name": "requestedAmount",
          "type": "uint256"
        },
        {
          "indexed": false,
          "internalType": "uint256",
          "name": "netWorth",
          "type": "uint256"
        },
        {
          "indexed": false,
          "internalType": "bool",
          "name": "isApproved",
          "type": "bool"
        }
      ],
      "name": "ProofRegistered",
      "type": "event"
    },
    {
      "inputs": [
        {
          "internalType": "bytes32",
          "name": "_proofHash",
          "type": "bytes32"
        }
      ],
      "name": "getProofDetails",
      "outputs": [
        {
          "internalType": "uint256",
          "name": "timestamp",
          "type": "uint256"
        },
        {
          "internalType": "uint256",
          "name": "requestedAmount",
          "type": "uint256"
        },
        {
          "internalType": "uint256",
          "name": "netWorth",
          "type": "uint256"
        },
        {
          "internalType": "bool",
          "name": "isApproved",
          "type": "bool"
        },
        {
          "internalType": "address",
          "name": "walletAddress",
          "type": "address"
        }
      ],
      "stateMutability": "view",
      "type": "function"
    },
    {
      "inputs": [
        {
          "internalType": "bytes32",
          "name": "",
          "type": "bytes32"
        }
      ],
      "name": "proofs",
      "outputs": [
        {
          "internalType": "bytes32",
          "name": "proofHash",
          "type": "bytes32"
        },
        {
          "internalType": "uint256",
          "name": "timestamp",
          "type": "uint256"
        },
        {
          "internalType": "uint256",
          "name": "requestedAmount",
          "type": "uint256"
        },
        {
          "internalType": "uint256",
          "name": "netWorth",
          "type": "uint256"
        },
        {
          "internalType": "bool",
          "name": "isApproved",
          "type": "bool"
        },
        {
          "internalType": "address",
          "name": "walletAddress",
          "type": "address"
        }
      ],
      "stateMutability": "view",
      "type": "function"
    },
    {
      "inputs": [
        {
          "internalType": "bytes32",
          "name": "_proofHash",
          "type": "bytes32"
        },
        {
          "internalType": "uint256",
          "name": "_requestedAmount",
          "type": "uint256"
        },
        {
          "internalType": "uint256",
          "name": "_netWorth",
          "type": "uint256"
        },
        {
          "internalType": "bool",
          "name": "_isApproved",
          "type": "bool"
        },
        {
          "internalType": "address",
          "name": "_walletAddress",
          "type": "address"
        }
      ],
      "name": "registerProof",
      "outputs": [],
      "stateMutability": "nonpayable",
      "type": "function"
    },
    {
      "inputs": [
        {
          "internalType": "bytes32",
          "name": "_proofHash",
          "type": "bytes32"
        }
      ],
      "name": "verifyProof",
      "outputs": [
        {
          "internalType": "bool",
          "name": "",
          "type": "bool"
        }
      ],
      "stateMutability": "view",
      "type": "function"
    }
  ],
  "bytecode": "0x608060405234801561001057600080fd5b50610887806100206000396000f3fe608060405234801561001057600080fd5b506004361061004c5760003560e01c8063378345f314610051578063444d95b01461006d5780637dc243ea146100a2578063b142b4ec146100d6575b600080fd5b61006b60048036038101906100669190610570565b610106565b005b610087600480360381019061008291906105eb565b6102a9565b60405161009996959493929190610654565b60405180910390f35b6100bc60048036038101906100b791906105eb565b610312565b6040516100cd9594939291906106b5565b60405180910390f35b6100f060048036038101906100eb91906105eb565b610447565b6040516100fd9190610708565b60405180910390f35b6000806000878152602001908152602001600020600101541461015e576040517f08c379a000000000000000000000000000000000000000000000000000000000815260040161015590610780565b60405180910390fd5b60006040518060c0016040528087815260200142815260200186815260200185815260200184151581526020018373ffffffffffffffffffffffffffffffffffffffff168152509050806000808881526020019081526020016000206000820151816000015560208201518160010155604082015181600201556060820151816003015560808201518160040160006101000a81548160ff02191690831515021790555060a08201518160040160016101000a81548173ffffffffffffffffffffffffffffffffffffffff021916908373ffffffffffffffffffffffffffffffffffffffff1602179055509050508173ffffffffffffffffffffffffffffffffffffffff16867f9b4f5b86dabceba62fd06f723fda75a6a4a384d8d4b21e6fb5dad0de15fa950a4288888860405161029994939291906107a0565b60405180910390a3505050505050565b60006020528060005260406000206000915090508060000154908060010154908060020154908060030154908060040160009054906101000a900460ff16908060040160019054906101000a900473ffffffffffffffffffffffffffffffffffffffff16905086565b6000806000806000806000808881526020019081526020016000206040518060c0016040529081600082015481526020016001820154815260200160028201548152602001600382015481526020016004820160009054906101000a900460ff161515151581526020016004820160019054906101000a900473ffffffffffffffffffffffffffffffffffffffff1673ffffffffffffffffffffffffffffffffffffffff1673ffffffffffffffffffffffffffffffffffffffff16815250509050600081602001510361041a576040517f08c379a000000000000000000000000000000000000000000000000000000000815260040161041190610831565b60405180910390fd5b80602001518160400151826060015183608001518460a00151955095509550955095505091939590929450565b6000806000808481526020019081526020016000206001015414159050919050565b600080fd5b6000819050919050565b6104818161046e565b811461048c57600080fd5b50565b60008135905061049e81610478565b92915050565b6000819050919050565b6104b7816104a4565b81146104c257600080fd5b50565b6000813590506104d4816104ae565b92915050565b60008115159050919050565b6104ef816104da565b81146104fa57600080fd5b50565b60008135905061050c816104e6565b92915050565b600073ffffffffffffffffffffffffffffffffffffffff82169050919050565b600061053d82610512565b9050919050565b61054d81610532565b811461055857600080fd5b50565b60008135905061056a81610544565b92915050565b600080600080600060a0868803121561058c5761058b610469565b5b600061059a8882890161048f565b95505060206105ab888289016104c5565b94505060406105bc888289016104c5565b93505060606105cd888289016104fd565b92505060806105de8882890161055b565b9150509295509295909350565b60006020828403121561060157610600610469565b5b600061060f8482850161048f565b91505092915050565b6106218161046e565b82525050565b610630816104a4565b82525050565b61063f816104da565b82525050565b61064e81610532565b82525050565b600060c0820190506106696000830189610618565b6106766020830188610627565b6106836040830187610627565b6106906060830186610627565b61069d6080830185610636565b6106aa60a0830184610645565b979650505050505050565b600060a0820190506106ca6000830188610627565b6106d76020830187610627565b6106e46040830186610627565b6106f16060830185610636565b6106fe6080830184610645565b9695505050505050565b600060208201905061071d6000830184610636565b92915050565b600082825260208201905092915050565b7f50726f6f6620616c726561647920726567697374657265640000000000000000600082015250565b600061076a601883610723565b915061077582610734565b602082019050919050565b600060208201905081810360008301526107998161075d565b9050919050565b60006080820190506107b56000830187610627565b6107c26020830186610627565b6107cf6040830185610627565b6107dc6060830184610636565b95945050505050565b7f50726f6f6620646f6573206e6f74206578697374000000000000000000000000600082015250565b600061081b601483610723565b9150610826826107e5565b602082019050919050565b6000602082019050818103600083015261084a8161080e565b905091905056fea2646970667358221220e0677e795b7ecfd895762ad6c658978032d8ae3b90d0aebc4f6c85c35034fd4e64736f6c63430008130033",
  "linkReferences": {},
  "deployedLinkReferences": {}
}