{
  "_format": "hh-sol-artifact-1",
  "contractName": "ProofRegistry",
  "sourceName": "contracts/ProofRegistry.sol",
  "abi": [
    {
      "anonymous": false,
      "inputs": [
        {
          "indexed": true,
          "internalType": "bytes32",
          "name": "proofHash",
          "type": "bytes32"
        },
        {
          "indexed": false,
          "internalType": "uint256",
          "name": "timestamp",
          "type": "uint256"
        },
        {
          "indexed": false,
          "internalType": "uint256",
          "name": "requestedAmount",
          "type": "uint256"
        },
        {
          "indexed": false,
          "internalType": "uint256",
          "name": "netWorth",
          "type": "uint256"
        },
        {
          "indexed": false,
          "internalType": "bool",
          "name": "isApproved",
          "type": "bool"
        },
        {
          "indexed": true,
          "internalType": "address",
          "name": "walletAddress",
          "type": "address"
        }
      ],
      "name": "ProofRegistered",
      "type": "event"
    },
    {
      "inputs": [
        {
          "internalType": "bytes32",
          "name": "proofHash",
          "type": "bytes32"
        }
      ],
      "name": "getProofDetails",
      "outputs": [
        {
          "internalType": "uint256",
          "name": "timestamp",
          "type": "uint256"
        },
        {
          "internalType": "uint256",
          "name": "requestedAmount",
          "type": "uint256"
        },
        {
          "internalType": "uint256",
          "name": "netWorth",
          "type": "uint256"
        },
        {
          "internalType": "bool",
          "name": "isApproved",
          "type": "bool"
        },
        {
          "internalType": "address",
          "name": "walletAddress",
          "type": "address"
        }
      ],
      "stateMutability": "view",
      "type": "function"
    },
    {
      "inputs": [
        {
          "internalType": "address",
          "name": "walletAddress",
          "type": "address"
        }
      ],
      "name": "getUserProofs",
      "outputs": [
        {
          "internalType": "bytes32[]",
          "name": "",
          "type": "bytes32[]"
        }
      ],
      "stateMutability": "view",
      "type": "function"
    },
    {
      "inputs": [
        {
          "internalType": "bytes32",
          "name": "proofHash",
          "type": "bytes32"
        },
        {
          "internalType": "uint256",
          "name": "requestedAmount",
          "type": "uint256"
        },
        {
          "internalType": "uint256",
          "name": "netWorth",
          "type": "uint256"
        },
        {
          "internalType": "bool",
          "name": "isApproved",
          "type": "bool"
        },
        {
          "internalType": "address",
          "name": "walletAddress",
          "type": "address"
        }
      ],
      "name": "registerProof",
      "outputs": [],
      "stateMutability": "nonpayable",
      "type": "function"
    },
    {
      "inputs": [
        {
          "internalType": "bytes32",
          "name": "proofHash",
          "type": "bytes32"
        }
      ],
      "name": "verifyProof",
      "outputs": [
        {
          "internalType": "bool",
          "name": "",
          "type": "bool"
        }
      ],
      "stateMutability": "view",
      "type": "function"
    }
  ],
  "bytecode": "0x608060405234801561001057600080fd5b50610b25806100206000396000f3fe608060405234801561001057600080fd5b506004361061004c5760003560e01c8063378345f31461005157806346bdfb801461006d5780637dc243ea1461009d578063b142b4ec146100d1575b600080fd5b61006b60048036038101906100669190610699565b610101565b005b61008760048036038101906100829190610714565b6103ae565b60405161009491906107ff565b60405180910390f35b6100b760048036038101906100b29190610821565b610445565b6040516100c895949392919061087b565b60405180910390f35b6100eb60048036038101906100e69190610821565b610570565b6040516100f891906108ce565b60405180910390f35b6000801b8503610146576040517f08c379a000000000000000000000000000000000000000000000000000000000815260040161013d90610946565b60405180910390fd5b600073ffffffffffffffffffffffffffffffffffffffff168173ffffffffffffffffffffffffffffffffffffffff16036101b5576040517f08c379a00000000000000000000000000000000000000000000000000000000081526004016101ac906109b2565b60405180910390fd5b6000806000878152602001908152602001600020600001541461020d576040517f08c379a000000000000000000000000000000000000000000000000000000000815260040161020490610a1e565b60405180910390fd5b60006040518060a0016040528042815260200186815260200185815260200184151581526020018373ffffffffffffffffffffffffffffffffffffffff1681525090508060008088815260200190815260200160002060008201518160000155602082015181600101556040820151816002015560608201518160030160006101000a81548160ff02191690831515021790555060808201518160030160016101000a81548173ffffffffffffffffffffffffffffffffffffffff021916908373ffffffffffffffffffffffffffffffffffffffff160217905550905050600160008373ffffffffffffffffffffffffffffffffffffffff1673ffffffffffffffffffffffffffffffffffffffff1681526020019081526020016000208690806001815401808255809150506001900390600052602060002001600090919091909150558173ffffffffffffffffffffffffffffffffffffffff16867fa599019212f8169ed8f531913941246e356225c6c45be2f9badbb0933dad89204288888860405161039e9493929190610a3e565b60405180910390a3505050505050565b6060600160008373ffffffffffffffffffffffffffffffffffffffff1673ffffffffffffffffffffffffffffffffffffffff16815260200190815260200160002080548060200260200160405190810160405280929190818152602001828054801561043957602002820191906000526020600020905b815481526020019060010190808311610425575b50505050509050919050565b6000806000806000806000808881526020019081526020016000206040518060a00160405290816000820154815260200160018201548152602001600282015481526020016003820160009054906101000a900460ff161515151581526020016003820160019054906101000a900473ffffffffffffffffffffffffffffffffffffffff1673ffffffffffffffffffffffffffffffffffffffff1673ffffffffffffffffffffffffffffffffffffffff168152505090506000816000015103610543576040517f08c379a000000000000000000000000000000000000000000000000000000000815260040161053a90610acf565b60405180910390fd5b80600001518160200151826040015183606001518460800151955095509550955095505091939590929450565b6000806000808481526020019081526020016000206000015414159050919050565b600080fd5b6000819050919050565b6105aa81610597565b81146105b557600080fd5b50565b6000813590506105c7816105a1565b92915050565b6000819050919050565b6105e0816105cd565b81146105eb57600080fd5b50565b6000813590506105fd816105d7565b92915050565b60008115159050919050565b61061881610603565b811461062357600080fd5b50565b6000813590506106358161060f565b92915050565b600073ffffffffffffffffffffffffffffffffffffffff82169050919050565b60006106668261063b565b9050919050565b6106768161065b565b811461068157600080fd5b50565b6000813590506106938161066d565b92915050565b600080600080600060a086880312156106b5576106b4610592565b5b60006106c3888289016105b8565b95505060206106d4888289016105ee565b94505060406106e5888289016105ee565b93505060606106f688828901610626565b925050608061070788828901610684565b9150509295509295909350565b60006020828403121561072a57610729610592565b5b600061073884828501610684565b91505092915050565b600081519050919050565b600082825260208201905092915050565b6000819050602082019050919050565b61077681610597565b82525050565b6000610788838361076d565b60208301905092915050565b6000602082019050919050565b60006107ac82610741565b6107b6818561074c565b93506107c18361075d565b8060005b838110156107f25781516107d9888261077c565b97506107e483610794565b9250506001810190506107c5565b5085935050505092915050565b6000602082019050818103600083015261081981846107a1565b905092915050565b60006020828403121561083757610836610592565b5b6000610845848285016105b8565b91505092915050565b610857816105cd565b82525050565b61086681610603565b82525050565b6108758161065b565b82525050565b600060a082019050610890600083018861084e565b61089d602083018761084e565b6108aa604083018661084e565b6108b7606083018561085d565b6108c4608083018461086c565b9695505050505050565b60006020820190506108e3600083018461085d565b92915050565b600082825260208201905092915050565b7f496e76616c69642070726f6f6620686173680000000000000000000000000000600082015250565b60006109306012836108e9565b915061093b826108fa565b602082019050919050565b6000602082019050818103600083015261095f81610923565b9050919050565b7f496e76616c69642077616c6c6574206164647265737300000000000000000000600082015250565b600061099c6016836108e9565b91506109a782610966565b602082019050919050565b600060208201905081810360008301526109cb8161098f565b9050919050565b7f50726f6f6620616c726561647920726567697374657265640000000000000000600082015250565b6000610a086018836108e9565b9150610a13826109d2565b602082019050919050565b60006020820190508181036000830152610a37816109fb565b9050919050565b6000608082019050610a53600083018761084e565b610a60602083018661084e565b610a6d604083018561084e565b610a7a606083018461085d565b95945050505050565b7f50726f6f66206e6f7420666f756e640000000000000000000000000000000000600082015250565b6000610ab9600f836108e9565b9150610ac482610a83565b602082019050919050565b60006020820190508181036000830152610ae881610aac565b905091905056fea2646970667358221220ed5130489e551125c3111bb46158b68ab54b2888d0e210e0a0f028351db4bc2f64736f6c63430008130033",
  "linkReferences": {},
  "deployedLinkReferences": {}
}